:020000040800F2
:1000000080070020A1010008A9010008AB01000839
:10001000AD010008AF010008B101000800000000B8
:10002000000000000000000000000000B301000814
:10003000B501000800000000B701000875120008B3
:10004000BB010008BB010008BB010008BB010008A0
:10005000BB010008BB010008BB010008BB01000890
:10006000BB010008BB010008BB010008BB01000880
:10007000BB010008BB010008BB010008BB01000870
:10008000BB010008BB010008BB010008BB01000860
:10009000BB010008BB010008BB010008BB01000850
:1000A000BB010008BB010008BB010008BB01000840
:1000B000BB010008BB010008BB010008BB01000830
:1000C000BB010008BB010008BB010008BB01000820
:1000D000BB010008BB010008BB010008BB01000810
:1000E000BB010008BB010008BB01000800F002F8DA
:1000F00000F047F80AA090E8000C82448344AAF17B
:100100000107DA4501D100F03CF8AFF2090EBAE878
:100110000F0013F0010F18BFFB1A43F0010318473B
:100120002413000044130000103A24BF78C878C19B
:10013000FAD8520724BF30C830C144BF04680C60ED
:10014000704700000023002400250026103A28BF35
:1001500078C1FBD8520728BF30C148BF0B60704739
:10016000642900F07D80002070471FB59DE80300E2
:1001700000F026FD00F07CFA1FBD10B500F0E1FA9A
:1001800010BD00F011FB1146FFF7EFFF01F026F95B
:1001900000F0BEFC03B4FFF7F0FF03BC00F0E2FD8B
:1001A0000948804709480047FEE7FEE7FEE7FEE70B
:1001B000FEE7FEE7FEE7FEE7FEE7FEE70448054947
:1001C000054A064B704700007D120008ED0000084C
:1001D0008001002080070020800300208003002091
:1001E0000FB4044910B503AA029800F027F910BC17
:1001F0005DF814FB6C0000202DE9F0410E4604462A
:10020000002020622046E168884730B3252805D0C9
:10021000D4E901219047206A401CF2E7E1682046BA
:1002200000278847050018D0A5F14100192802D8F9
:1002300020354FF400673246294620462760FFF7F5
:100240008FFF40B1012804D0F61D26F007060836BE
:10025000D8E7361DD6E72846DAE7206ABDE8F08100
:100260002DE9F0410646002410687529314616A58F
:1002700010D0AFF30080002802DA404213A507E057
:1002800031688A0701D512A502E0490704D511A5F6
:10029000012401E0AFF3008000210A2206F12407C7
:1002A00009E0B0FBF2FCB0FBF2F302FB1C003030C3
:1002B00078541846491C0028F3D123462A46304674
:1002C000BDE8F04100F061B8000000002D00000022
:1002D0002B0000002000000010B5044603E001F0F0
:1002E00097F8401C09D014F8010B05490028F6D1F5
:1002F000BDE810400A2001F08BB84FF0FF3010BD70
:100300006C0000204FF0013C50F8042B51F8043BE6
:100310009A4221D1A2EB0C03934313EACC1317D1D9
:1003200050F8042B51F8043B9A4215D1A2EB0C0370
:10033000934313EACC130BD150F8042B51F8043B30
:100340009A4209D1A2EB0C03934313EACC13DBD0FE
:100350004FF00000704700BFD01A01BAB1FA81F126
:1003600001F0180122FA01F0CB40DBB2C0B2C01A92
:10037000C1F120012CFA01F3D11A914311EAC31102
:10038000E6D170477047704770472DE9F0470D463A
:1003900099469246044600F124080168880604D56F
:1003A000E06921F01001216000E00120A84201DD98
:1003B000471B00E00027A1697A1902EB0900081A1F
:1003C000A0612078C00602D42046AFF3008000264A
:1003D00008E0D4E901211AF806009047206A401C81
:1003E000761C20624E45F4DB2078C0060AD52046F4
:1003F000AFF3008006E0D4E9012130209047206A65
:10040000401C2062381EA7F10107F4DC07E0D4E9A4
:10041000012118F805009047206A401C2062281E20
:10042000A5F10105F3DC2046AFF30080207800063B
:1004300002D50220BDE8F0870120FBE7074B70B52D
:100440000D467B4400F011F80446284600F020F8E1
:1004500010B14FF0FF3070BD204670BDCB0F0000D3
:1004600001694A1C02610878704700B58FB0CDE978
:1004700001310021059105497944CDE90310114668
:100480006846FFF7B9FE0FB000BD0000E5FFFFFFB3
:10049000007B00F0800070472DE9F04705460C46D0
:1004A000C86820F4201040F48000C860800602D59F
:1004B000084600F06EFAE06841F282014FF0FF3921
:1004C0000140022903D0204600F00CFAB5E000F408
:1004D0002041B1F5004F0FD1C00306D56168E06A35
:1004E000884200D80846606006E02069E0626060EB
:1004F000606900F011FFA061A0680022EEB2002840
:100500000DDAE1688B050AD4C043A06041F4903055
:100510002260E0606068411C61600670A5E0E068F0
:100520009046226040F40050E060206968BB60693A
:1005300000F0F4FE012704F12405A0B1A08910F415
:10054000407F08D0E06900F054F9206118B1E068FC
:1005500040F4006016E0E7612561E06820F4407037
:1005600040F480600EE0E06900F043F9002820616B
:10057000F1D0E06840F4006010F4407FE06002D108
:1005800040F48070E06020696060E06825696FF089
:10059000010AC1051FD56168E06A884200D8084693
:1005A000411B04D02246284600F0A6F9F0BBE068C3
:1005B000010203D5E562C4E9015854E0691CE16217
:1005C0006160E16940F48030491EC4E902103046A0
:1005D0002E70BDE8F087010202D500F480320AE0F7
:1005E0006068411C61600670E0680A2E40F480304B
:1005F000E06006D00022E16A6068814203D90B46C0
:1006000002E00122F7E70346A7895B1B7F0503D4BD
:10061000E7699F4200DDE2B1814200D80146E56210
:100620000F1AC4E90158002B09DD00E005E022465D
:100630001946284600F060F908B14846C9E747B1B5
:10064000A069E5626560C01BA061E06840F0100031
:10065000E060E068000208D56168A069E562491BB6
:1006600008446560A0615046B3E73046B1E700003A
:1006700010B54248542100F05BFA4148542100F083
:1006800057FA4048542100F053FA3F493B483C4A4E
:100690003F4B08603D490A603A491960531C0365A5
:1006A000481C1065012008653B48344A39A178444C
:1006B00000F090F920B9384878440A3800F031FA4F
:1006C00037482F4A35A1784400F084F920B93448DE
:1006D00078440A3800F025FA32482A4A2FA1784493
:1006E00000F078F920B92F4878440A3800F019FA58
:1006F00040232248DC000021224600F0D0F820B13F
:1007000025487844543800F00CFA1D48224640230E
:10071000002100F0C4F820B121487844543800F09A
:1007200000FA184822461023002100F0B8F80028EB
:1007300006D01C487844BDE81040563800F0F1B9A6
:1007400010BD104870B5006D20F001040B4800F09A
:10075000B9F90B4800F0B6F90A4800F0B3F909E01E
:10076000206D20F00105204600F0ACF9204600F095
:100770006FF82C46002CF3D170BD0000180000204B
:100780006C000020C00000200000002004000020B9
:100790000800002072000000800D000077000000BB
:1007A0006F0D0000480D0000754600F0E9F9AE46F7
:1007B00005006946534620F00700854618B020B56D
:1007C000FFF7FCFCBDE820404FF000064FF00007AB
:1007D0004FF000084FF0000BAC46ACE8C009ACE8A5
:1007E000C009ACE8C009ACE8C00921F007018D469A
:1007F000704770B5064600F0C7F9056806F10B00B2
:1008000020F00704B4429CBF002070BD2B466A68EC
:10081000BAB11068A04210D304F1080188423CBF6D
:100820005068586007D35168101941601168091B5E
:10083000016058601460101D70BD13465268002A94
:10084000E7D12146284600F0A7F90028DED170BD87
:1008500070B50446051F00F097F90068002C14BF1E
:10086000446870BD002C18BFAC423CBF2046646891
:10087000F8D301680A18AA4218BF456003D12A6854
:1008800005461144016028684119A1421CBF6C60F3
:1008900070BD6168696021680844286070BD70B5EA
:1008A000C468A50713D0650211D4B2F5807F09D0C2
:1008B000B2F5007F06D0B2F5806F08D1012300F1B8
:1008C000240106E05D1E6FF07F46B54201D3012092
:1008D00070BD0161C361416024F470611143C16066
:1008E000002070BDC16821F4001141F08001C16099
:1008F00000218160016070472DE9F0478146144670
:100900000E464FF0FF383248D5685769054209D086
:100910003846A16900F03CFD002811DB2C48C0439B
:100920000540E5602B4632464946384600F034FD26
:10093000A16920F00042B21A11440028A16103D03D
:100940002046FFF7CFFF4046BDE8F08770B504466C
:100950000569C06A6168884200D80846E16821F4E8
:100960002011E160C90312D5A84208D02246411BDC
:100970002846FFF7C1FF10B14FF0FF3070BD0020D7
:10098000E562C4E90150E06820F48030E0600020B6
:1009900070BD10B50446C06820F02000E060A16A78
:1009A000A06988420DD02046FFF7D0FFE06820F410
:1009B000405040F01000E060A06AA0612069E06251
:1009C000606044F24001E0688843E06010BD0000D0
:1009D000100002002DE9F0410C461646070047D0F2
:1009E000104600F06FF82078611C61280AD0722848
:1009F00002D077283CD102E00125002405E0022541
:100A0000042402E0082448F2020511F8010B2B2807
:100A100006D0622809D011F8010C74280AD00BE026
:100A200045F0030544F00204EFE745F0040544F007
:100A30000104EAE744F010043846214600F076FC51
:100A4000411C15D00021316171604FF40071F560D7
:100A5000F1617061200704D530460222002100F0C8
:100A6000E5F8306D40F0010030653046BDE8F081BA
:100A70000020FBE72DE9F0410D460646104C206DA5
:100A8000C10704D0410804D020F00104F7E7224652
:100A90000EE05420FFF7ADFE07000ED0206D47F0AA
:100AA0000101084354212065384600F041F83A46D8
:100AB00029463046BDE8F0418CE70020D6E700002B
:100AC000180000202DE9F04704464FF000094FF0D0
:100AD000FF37C568D4E90486A80707D02046FFF78A
:100AE00035FF304600F00EFC002802DA3846BDE83B
:100AF000F087280502D54046FFF7AAFE4C21204684
:100B000000F016F8206D20F0010020654846EEE761
:100B100010B50446AFF300802046BDE81040FFF753
:100B200039BB10B500F004F9BDE8104000F0FAB888
:100B30004FF0000200B5134694469646203922BF76
:100B4000A0E80C50A0E80C50B1F12001BFF4F7AFC1
:100B5000090728BFA0E80C5048BF0CC05DF804EBA3
:100B6000890028BF40F8042B08BF704748BF20F811
:100B7000022B11F0804F18BF00F8012B70470000C6
:100B80000048704714010020004870471C010020F5
:100B9000704770477047704738B504460A460020D2
:100BA0006946AFF30080002808BF38BD02460099AF
:100BB000204600F0DDF8012038BD012000F02CB9FE
:100BC000F8B5AFF30080054600200C46102000BFAA
:100BD0000646A819A0420DD9324669460020AFF357
:100BE0000080070008BF00F017F90098A04218BF66
:100BF0000546C419FFF7C8FF05600746F01D20F041
:100C000007004619284600F00AF8B44208BFF8BDAC
:100C1000A21B31463868BDE8F84000F0A9B80021B1
:100C20000160C0E901107047102070472DE9F041C4
:100C3000044616460D464769007B80072ED038468D
:100C400000F06CFB50BB3EB3012E02D0022E25D12A
:100C500004E0204600F0A6F805441DE0384600F008
:100C60005BFBE168002841F01001E16005DA2046F5
:100C7000FFF738FE0120BDE8F081C9030BD562689B
:100C8000E16A914200D81146A26911442269891A89
:100C9000814200DD08460544002D01DA0220EAE722
:100CA000E16A6068E268814206D29103E06203D59E
:100CB00022F4003141F01002A6690027AE4213DC95
:100CC000E16A814201D90B4600E0034603EB060CC2
:100CD0002369ACEB030CAC4506DD814201D98C469F
:100CE00000E084469C4505D1A760276042F02000C3
:100CF000A5620DE0AD1BE669AE1B8142A66000D97E
:100D00000846C01A281A20605819606022F0200096
:100D100003490840E060002084F84870ABE7000019
:100D2000BFCFD7FF002801D000F01CB870470000EB
:100D300010B5014602A000F056F8012010BD0000D9
:100D400053494752545245443A205265646972658A
:100D500063743A2063616E2774206F70656E3A2069
:100D60000000000001491820ABBEFEE7260002008B
:100D7000034640688C46002818BF88423CBF0346A3
:100D80004068F8D318681844884207D00CF1030073
:100D900020F00700001D411A521A0146081D0A6082
:100DA000FFF756BD10B50146C268900703D0900604
:100DB00007D5886A0AE000F03FF801210160881E2B
:100DC00010BD8B69486818440B69C01A91F8483007
:100DD0001BB191F84910401A10BD1103FCD5002831
:100DE000FADD401E10BD70B505460C460A2000E035
:100DF0006D1C00F018F835B128780028F8D102E011
:100E0000641C00F010F814B120780028F8D1BDE877
:100E100070400A2000F007B810B500F011F8BDE8E6
:100E20001040FFF77FBF08B569468DF8000003202A
:100E3000ABBE08BD70470000004870471401002099
:100E400010B5012805D0002103A0FFF7CCFF012039
:100E500010BD09A1F8E7000053494752544D454DD4
:100E60003A204F7574206F662068656170206D654B
:100E70006D6F7279000000003A2048656170206D46
:100E8000656D6F727920636F72727570746564003E
:100E9000F0B581B040F2140CC2F2000CBCF8002096
:100EA00040F2120E13B2C2F2000E48F68901BEF8EB
:100EB00000000133C8F6880183FB014504B23B2AD8
:100EC00040F2100608BF013484FB0112C2F2000692
:100ED0003B284AF6AB20B6F90010C2F6AA2008BF9C
:100EE000013181FB0007E818451105EBD070C0EB1C
:100EF0000010A3EB80031019421102EBD070C0EB7D
:100F00000010A4EB8002B81000EBD77000EB40009B
:100F1000A1EBC00108A0ACF80030AEF80020318091
:100F2000FFF75EF90420002100F03CF806A009213B
:100F300000F0A8F801B0F0BD0A2564203A2025642D
:100F4000203A202564000000686F6C616D756E6446
:100F50006F0000000020704740F60061CEF20001F3
:100F6000D1F88020D2071CBF09685FEAC17100D1A7
:100F700070474FF0604100BF0A68002AFCD04FF074
:100F8000604108707047000040F6004143F2333082
:100F9000C4F20101C8F688000860FF220020CA6080
:100FA0007047000080B5012908BF403040F0800044
:100FB000C0B200F04DF880BD80B541F21800C4F217
:100FC0000200016840F2FF7241F00401016040F646
:100FD0000000C4F20100C1689143C160016840F2A1
:100FE000333241F033310160016821F0CC310160CE
:100FF000416811434160416840F6CC4291434160F1
:10100000382000F025F80E2000F022F8012000F032
:101010001FF8062000F01CF880BD000040F60C010F
:10102000C4F201010A6842F400720A600A680243CD
:101030000A600A6800F57F4010400860086840F4C4
:1010400080600860086820F4C06008607047000095
:1010500040F60C01C4F201010A6822F400720A6031
:101060000A6802430A600A6800F57F401040086081
:10107000086840F480600860086820F480600860B8
:1010800070470000B0B5002908BFB0BD0C46451E32
:1010900015F8010FFFF7C2FF013CF9D1B0BD000008
:1010A00041F21801C4F20201086840F0FC0200207D
:1010B0000A60704710B540F27610C2F20000018855
:1010C00040F2741400291CBF00210180C2F2000408
:1010D000208818B1FFF7DCFE00202080002010BD22
:1010E00080B50EA0FFF7F8F840F27410C2F20000CD
:1010F0000021018040F27610C2F20000018040F22F
:101100007810C2F2000040F2E731018040F27A111B
:10111000C2F20001092200200A8080BD0A494E491E
:101120004349414E444F204F532E2E2E00000000C5
:1011300040F27810C2F20000018801318AB2B2F5A3
:101140007A7F018007D140F27411C2F200010122BE
:101150000A800021018040F27A10C2F2000001886A
:1011600001318AB20A2A018007D140F27611C2F217
:10117000000101220A800021018000207047000048
:101180000020704780B500F001F880BD82B041F2C8
:1011900004000021C4F202000191009150F8041CE7
:1011A00041F4803140F8041C50F8041C01F4003173
:1011B0000091019901310191009919B90199B1F595
:1011C000A06FF1D150F8041C890354BF0021012104
:1011D00000910099012936D142F20001C4F20201C6
:1011E0000A6842F010020A600A6822F003020A60EC
:1011F0000A6842F002020A60016801600168016049
:10120000016841F480610160016821F47C11016092
:10121000016841F4E811016050F8041C41F080714C
:1012200040F8041C50F8041C8901FBD5016821F02A
:1012300003010160016841F002010160016801F0F1
:101240000C010829FAD102B070470000B0B501388E
:101250000024B4EB106F1CBF0120B0BD4EF210058E
:10126000CEF20005686000F045F80720AC60286009
:101270002046B0BD80B5FFF75BFF80BD80B541F271
:101280000000C4F202000168002241F00101016087
:101290004168CFF6FF021140416001684FF6FF72CE
:1012A000CFF6F66211400160016821F480210160EF
:1012B000416821F4FE0141604FF41F018160FFF796
:1012C00061FF4EF60850CEF200004FF00061016061
:1012D00080BD000080B540F20C00C2F20000006842
:1012E00044F6D351C1F26201A0FB01018809FFF766
:1012F000ADFF80BD4EF62350CEF20000F02101700C
:101300007047000048F20101411A0020022988BFFD
:101310004FF0FF30704700000020704748F2010195
:10132000411A0020032938BF0120704710B5C8B109
:10133000044600783A2815D10FA12046FEF7E2FFB7
:1013400098B10FA12046FEF7DDFF88B10EA120461F
:10135000FEF7D8FF4FF0FF31002808BF48F2030125
:10136000084610BD4FF0FF3010BD48F2010010BD1F
:1013700048F2020010BD00BF3A535444494E0000E9
:101380003A5354444F5554003A5354444552520032
:101390004FF0FF3070470000B0B5144648F203022A
:1013A00090420CD048F20202904213D184B14D1EFB
:1013B00015F8010F00F028F8013CF9D108E03CB124
:1013C0004D1E00BF15F8010F00F01AF8013CF9D1CD
:1013D0000020B0BD4FF0FF30B0BD0000FFF780FE31
:1013E000FFF75EFEFFF776FFFFF7B4FDFFF7E4FDC2
:1013F000FFF7CAFDFFF75EFEFFF7C2FEFAE7000047
:1014000080B5FFF7A9FD80BD80B5FFF7A5FD80BDC4
:101410008A68002A01DCFFF73FB8521E8A604A68DA
:10142000C0B2531C4B60107070473A53544445523D
:1014300052003A535444494E003A5354444F555481
:1014400000000000641400080000002018000000E4
:10145000280100087C14000818000020680700001C
:10146000440100080000000000000000000000002F
:0C14700000A24A0413000A00160000004D
:04000005080001A14D
:00000001FF
